{
  "contractName": "MyToken",
  "abi": [
    {
      "constant": true,
      "inputs": [],
      "name": "name",
      "outputs": [
        {
          "name": "",
          "type": "string"
        }
      ],
      "payable": false,
      "stateMutability": "view",
      "type": "function"
    },
    {
      "constant": false,
      "inputs": [
        {
          "name": "_spender",
          "type": "address"
        },
        {
          "name": "_value",
          "type": "uint256"
        }
      ],
      "name": "approve",
      "outputs": [
        {
          "name": "",
          "type": "bool"
        }
      ],
      "payable": false,
      "stateMutability": "nonpayable",
      "type": "function"
    },
    {
      "constant": true,
      "inputs": [],
      "name": "totalSupply",
      "outputs": [
        {
          "name": "",
          "type": "uint256"
        }
      ],
      "payable": false,
      "stateMutability": "view",
      "type": "function"
    },
    {
      "constant": false,
      "inputs": [
        {
          "name": "_from",
          "type": "address"
        },
        {
          "name": "_to",
          "type": "address"
        },
        {
          "name": "_value",
          "type": "uint256"
        }
      ],
      "name": "transferFrom",
      "outputs": [
        {
          "name": "",
          "type": "bool"
        }
      ],
      "payable": false,
      "stateMutability": "nonpayable",
      "type": "function"
    },
    {
      "constant": true,
      "inputs": [],
      "name": "decimals",
      "outputs": [
        {
          "name": "",
          "type": "uint8"
        }
      ],
      "payable": false,
      "stateMutability": "view",
      "type": "function"
    },
    {
      "constant": true,
      "inputs": [
        {
          "name": "_addr",
          "type": "address"
        }
      ],
      "name": "balanceOf",
      "outputs": [
        {
          "name": "",
          "type": "uint256"
        }
      ],
      "payable": false,
      "stateMutability": "view",
      "type": "function"
    },
    {
      "constant": true,
      "inputs": [],
      "name": "symbol",
      "outputs": [
        {
          "name": "",
          "type": "string"
        }
      ],
      "payable": false,
      "stateMutability": "view",
      "type": "function"
    },
    {
      "constant": false,
      "inputs": [
        {
          "name": "_to",
          "type": "address"
        },
        {
          "name": "_value",
          "type": "uint256"
        }
      ],
      "name": "transfer",
      "outputs": [
        {
          "name": "",
          "type": "bool"
        }
      ],
      "payable": false,
      "stateMutability": "nonpayable",
      "type": "function"
    },
    {
      "constant": false,
      "inputs": [
        {
          "name": "_from",
          "type": "address"
        },
        {
          "name": "_to",
          "type": "address"
        },
        {
          "name": "_value",
          "type": "uint256"
        },
        {
          "name": "_data",
          "type": "bytes"
        }
      ],
      "name": "transferFrom",
      "outputs": [
        {
          "name": "",
          "type": "bool"
        }
      ],
      "payable": false,
      "stateMutability": "nonpayable",
      "type": "function"
    },
    {
      "constant": false,
      "inputs": [
        {
          "name": "_to",
          "type": "address"
        },
        {
          "name": "_value",
          "type": "uint256"
        },
        {
          "name": "_data",
          "type": "bytes"
        }
      ],
      "name": "transfer",
      "outputs": [
        {
          "name": "",
          "type": "bool"
        }
      ],
      "payable": false,
      "stateMutability": "nonpayable",
      "type": "function"
    },
    {
      "constant": true,
      "inputs": [
        {
          "name": "_owner",
          "type": "address"
        },
        {
          "name": "_spender",
          "type": "address"
        }
      ],
      "name": "allowance",
      "outputs": [
        {
          "name": "",
          "type": "uint256"
        }
      ],
      "payable": false,
      "stateMutability": "view",
      "type": "function"
    },
    {
      "inputs": [],
      "payable": false,
      "stateMutability": "nonpayable",
      "type": "constructor"
    },
    {
      "anonymous": false,
      "inputs": [
        {
          "indexed": true,
          "name": "from",
          "type": "address"
        },
        {
          "indexed": true,
          "name": "to",
          "type": "address"
        },
        {
          "indexed": false,
          "name": "value",
          "type": "uint256"
        },
        {
          "indexed": true,
          "name": "data",
          "type": "bytes"
        }
      ],
      "name": "Transfer",
      "type": "event"
    },
    {
      "anonymous": false,
      "inputs": [
        {
          "indexed": true,
          "name": "_owner",
          "type": "address"
        },
        {
          "indexed": true,
          "name": "_spender",
          "type": "address"
        },
        {
          "indexed": false,
          "name": "_value",
          "type": "uint256"
        }
      ],
      "name": "Approval",
      "type": "event"
    },
    {
      "anonymous": false,
      "inputs": [
        {
          "indexed": true,
          "name": "_from",
          "type": "address"
        },
        {
          "indexed": true,
          "name": "_to",
          "type": "address"
        },
        {
          "indexed": false,
          "name": "_value",
          "type": "uint256"
        }
      ],
      "name": "Transfer",
      "type": "event"
    }
  ],
  "bytecode": "0x606060405234156200001057600080fd5b6040805190810160405280600381526020017f4d465400000000000000000000000000000000000000000000000000000000008152506040805190810160405280600881526020017f4d7920546f6b656e000000000000000000000000000000000000000000000000815250600061271083600090805190602001906200009992919062000125565b508260019080519060200190620000b292919062000125565b5081600260006101000a81548160ff021916908360ff1602179055508060038190555050505050600354600460003373ffffffffffffffffffffffffffffffffffffffff1673ffffffffffffffffffffffffffffffffffffffff16815260200190815260200160002081905550620001d4565b828054600181600116156101000203166002900490600052602060002090601f016020900481019282601f106200016857805160ff191683800117855562000199565b8280016001018555821562000199579182015b82811115620001985782518255916020019190600101906200017b565b5b509050620001a89190620001ac565b5090565b620001d191905b80821115620001cd576000816000905550600101620001b3565b5090565b90565b61128c80620001e46000396000f3006060604052600436106100af576000357c0100000000000000000000000000000000000000000000000000000000900463ffffffff16806306fdde03146100b4578063095ea7b31461014257806318160ddd1461019c57806323b872dd146101c5578063313ce5671461023e57806370a082311461026d57806395d89b41146102ba578063a9059cbb14610348578063ab67aa58146103a2578063be45fd621461045e578063dd62ed3e146104fb575b600080fd5b34156100bf57600080fd5b6100c7610567565b6040518080602001828103825283818151815260200191508051906020019080838360005b838110156101075780820151818401526020810190506100ec565b50505050905090810190601f1680156101345780820380516001836020036101000a031916815260200191505b509250505060405180910390f35b341561014d57600080fd5b610182600480803573ffffffffffffffffffffffffffffffffffffffff1690602001909190803590602001909190505061060f565b604051808215151515815260200191505060405180910390f35b34156101a757600080fd5b6101af610753565b6040518082815260200191505060405180910390f35b34156101d057600080fd5b610224600480803573ffffffffffffffffffffffffffffffffffffffff1690602001909190803573ffffffffffffffffffffffffffffffffffffffff1690602001909190803590602001909190505061075d565b604051808215151515815260200191505060405180910390f35b341561024957600080fd5b610251610784565b604051808260ff1660ff16815260200191505060405180910390f35b341561027857600080fd5b6102a4600480803573ffffffffffffffffffffffffffffffffffffffff1690602001909190505061079b565b6040518082815260200191505060405180910390f35b34156102c557600080fd5b6102cd6107e4565b6040518080602001828103825283818151815260200191508051906020019080838360005b8381101561030d5780820151818401526020810190506102f2565b50505050905090810190601f16801561033a5780820380516001836020036101000a031916815260200191505b509250505060405180910390f35b341561035357600080fd5b610388600480803573ffffffffffffffffffffffffffffffffffffffff1690602001909190803590602001909190505061088c565b604051808215151515815260200191505060405180910390f35b34156103ad57600080fd5b610444600480803573ffffffffffffffffffffffffffffffffffffffff1690602001909190803573ffffffffffffffffffffffffffffffffffffffff1690602001909190803590602001909190803590602001908201803590602001908080601f016020809104026020016040519081016040528093929190818152602001838380828437820191505050505050919050506108b1565b604051808215151515815260200191505060405180910390f35b341561046957600080fd5b6104e1600480803573ffffffffffffffffffffffffffffffffffffffff1690602001909190803590602001909190803590602001908201803590602001908080601f01602080910402602001604051908101604052809392919081815260200183838082843782019150505050505091905050610d93565b604051808215151515815260200191505060405180910390f35b341561050657600080fd5b610551600480803573ffffffffffffffffffffffffffffffffffffffff1690602001909190803573ffffffffffffffffffffffffffffffffffffffff16906020019091905050611075565b6040518082815260200191505060405180910390f35b61056f61124c565b60018054600181600116156101000203166002900480601f0160208091040260200160405190810160405280929190818152602001828054600181600116156101000203166002900480156106055780601f106105da57610100808354040283529160200191610605565b820191906000526020600020905b8154815290600101906020018083116105e857829003601f168201915b5050505050905090565b600081600460003373ffffffffffffffffffffffffffffffffffffffff1673ffffffffffffffffffffffffffffffffffffffff168152602001908152602001600020541015156107485781600560003373ffffffffffffffffffffffffffffffffffffffff1673ffffffffffffffffffffffffffffffffffffffff16815260200190815260200160002060008573ffffffffffffffffffffffffffffffffffffffff1673ffffffffffffffffffffffffffffffffffffffff168152602001908152602001600020819055508273ffffffffffffffffffffffffffffffffffffffff163373ffffffffffffffffffffffffffffffffffffffff167f8c5be1e5ebec7d5bd14f71427d1e84f3dd0314c0f7b2291e5b200ac8c7c3b925846040518082815260200191505060405180910390a36001905061074d565b600090505b92915050565b6000600354905090565b600061077b84848460206040519081016040528060008152506108b1565b90509392505050565b6000600260009054906101000a900460ff16905090565b6000600460008373ffffffffffffffffffffffffffffffffffffffff1673ffffffffffffffffffffffffffffffffffffffff168152602001908152602001600020549050919050565b6107ec61124c565b60008054600181600116156101000203166002900480601f0160208091040260200160405190810160405280929190818152602001828054600181600116156101000203166002900480156108825780601f1061085757610100808354040283529160200191610882565b820191906000526020600020905b81548152906001019060200180831161086557829003601f168201915b5050505050905090565b60006108a983836020604051908101604052806000815250610d93565b905092915050565b6000806000600560008873ffffffffffffffffffffffffffffffffffffffff1673ffffffffffffffffffffffffffffffffffffffff16815260200190815260200160002060003373ffffffffffffffffffffffffffffffffffffffff1673ffffffffffffffffffffffffffffffffffffffff168152602001908152602001600020541180156109405750600084115b80156109c8575083600560008873ffffffffffffffffffffffffffffffffffffffff1673ffffffffffffffffffffffffffffffffffffffff16815260200190815260200160002060003373ffffffffffffffffffffffffffffffffffffffff1673ffffffffffffffffffffffffffffffffffffffff1681526020019081526020016000205410155b8015610a13575083600460008873ffffffffffffffffffffffffffffffffffffffff1673ffffffffffffffffffffffffffffffffffffffff1681526020019081526020016000205410155b15610d855783600560008873ffffffffffffffffffffffffffffffffffffffff1673ffffffffffffffffffffffffffffffffffffffff16815260200190815260200160002060003373ffffffffffffffffffffffffffffffffffffffff1673ffffffffffffffffffffffffffffffffffffffff16815260200190815260200160002060008282540392505081905550610ac18573ffffffffffffffffffffffffffffffffffffffff16611207565b15610bed578490508073ffffffffffffffffffffffffffffffffffffffff1663c0ee0b8a3386866040518463ffffffff167c0100000000000000000000000000000000000000000000000000000000028152600401808473ffffffffffffffffffffffffffffffffffffffff1673ffffffffffffffffffffffffffffffffffffffff16815260200183815260200180602001828103825283818151815260200191508051906020019080838360005b83811015610b8b578082015181840152602081019050610b70565b50505050905090810190601f168015610bb85780820380516001836020036101000a031916815260200191505b50945050505050600060405180830381600087803b1515610bd857600080fd5b6102c65a03f11515610be957600080fd5b5050505b610c3f84600460008973ffffffffffffffffffffffffffffffffffffffff1673ffffffffffffffffffffffffffffffffffffffff1681526020019081526020016000205461121a90919063ffffffff16565b600460008873ffffffffffffffffffffffffffffffffffffffff1673ffffffffffffffffffffffffffffffffffffffff16815260200190815260200160002081905550610cd484600460008873ffffffffffffffffffffffffffffffffffffffff1673ffffffffffffffffffffffffffffffffffffffff1681526020019081526020016000205461123390919063ffffffff16565b600460008773ffffffffffffffffffffffffffffffffffffffff1673ffffffffffffffffffffffffffffffffffffffff168152602001908152602001600020819055508473ffffffffffffffffffffffffffffffffffffffff168673ffffffffffffffffffffffffffffffffffffffff167fddf252ad1be2c89b69c2b068fc378daa952ba7f163c4a11628f55a4df523b3ef866040518082815260200191505060405180910390a360019150610d8a565b600091505b50949350505050565b600080600084118015610de55750600460003373ffffffffffffffffffffffffffffffffffffffff1673ffffffffffffffffffffffffffffffffffffffff168152602001908152602001600020548411155b1561106857610e098573ffffffffffffffffffffffffffffffffffffffff16611207565b15610f35578490508073ffffffffffffffffffffffffffffffffffffffff1663c0ee0b8a3386866040518463ffffffff167c0100000000000000000000000000000000000000000000000000000000028152600401808473ffffffffffffffffffffffffffffffffffffffff1673ffffffffffffffffffffffffffffffffffffffff16815260200183815260200180602001828103825283818151815260200191508051906020019080838360005b83811015610ed3578082015181840152602081019050610eb8565b50505050905090810190601f168015610f005780820380516001836020036101000a031916815260200191505b50945050505050600060405180830381600087803b1515610f2057600080fd5b6102c65a03f11515610f3157600080fd5b5050505b610f8784600460003373ffffffffffffffffffffffffffffffffffffffff1673ffffffffffffffffffffffffffffffffffffffff1681526020019081526020016000205461121a90919063ffffffff16565b600460003373ffffffffffffffffffffffffffffffffffffffff1673ffffffffffffffffffffffffffffffffffffffff1681526020019081526020016000208190555061101c84600460008873ffffffffffffffffffffffffffffffffffffffff1673ffffffffffffffffffffffffffffffffffffffff1681526020019081526020016000205461123390919063ffffffff16565b600460008773ffffffffffffffffffffffffffffffffffffffff1673ffffffffffffffffffffffffffffffffffffffff168152602001908152602001600020819055506001915061106d565b600091505b509392505050565b6000600460008473ffffffffffffffffffffffffffffffffffffffff1673ffffffffffffffffffffffffffffffffffffffff16815260200190815260200160002054600560008573ffffffffffffffffffffffffffffffffffffffff1673ffffffffffffffffffffffffffffffffffffffff16815260200190815260200160002060008473ffffffffffffffffffffffffffffffffffffffff1673ffffffffffffffffffffffffffffffffffffffff1681526020019081526020016000205410156111be57600560008473ffffffffffffffffffffffffffffffffffffffff1673ffffffffffffffffffffffffffffffffffffffff16815260200190815260200160002060008373ffffffffffffffffffffffffffffffffffffffff1673ffffffffffffffffffffffffffffffffffffffff168152602001908152602001600020549050611201565b600460008473ffffffffffffffffffffffffffffffffffffffff1673ffffffffffffffffffffffffffffffffffffffff1681526020019081526020016000205490505b92915050565b600080823b905060008111915050919050565b600082821115151561122857fe5b818303905092915050565b6000818301905082811015151561124657fe5b92915050565b6020604051908101604052806000815250905600a165627a7a72305820efc746093cf8d7523cdf77a84e10fed9b1eede47addbbdd6a458fd7d91d3da0a0029",
  "source": "pragma solidity ^0.4.0;\r\n\r\nimport \"./Token.sol\";\r\nimport \"./ERC20.sol\";\r\nimport \"./ERC223.sol\";\r\nimport \"./ERC223ReceivingContract.sol\";\r\nimport \"./SafeMath.sol\";\r\nimport \"./Addresses.sol\";\r\n\r\ncontract MyToken is Token(\"MFT\", \"My Token\", 0, 10000), ERC20, ERC223 {\r\n\r\n    using SafeMath for uint;\r\n    using Addresses for address;\r\n\r\n    function MyToken()\r\n        public {\r\n        _balanceOf[msg.sender] = _totalSupply;\r\n    }\r\n\r\n    function totalSupply()\r\n        public\r\n        view\r\n        returns (uint) {\r\n        return _totalSupply;\r\n    }\r\n\r\n    function balanceOf(address _addr)\r\n        public\r\n        view\r\n        returns (uint) {\r\n        return _balanceOf[_addr];\r\n    }\r\n\r\n    function transfer(address _to, uint _value)\r\n        public\r\n        returns (bool) {\r\n        return transfer(_to, _value, \"\");\r\n    }\r\n\r\n    function transfer(address _to, uint _value, bytes _data)\r\n        public\r\n        returns (bool) {\r\n        if (_value > 0 &&\r\n            _value <= _balanceOf[msg.sender]) {\r\n\r\n            if (_to.isContract()) {\r\n              ERC223ReceivingContract _contract = ERC223ReceivingContract(_to);\r\n              _contract.tokenFallback(msg.sender, _value, _data);\r\n            }\r\n\r\n            _balanceOf[msg.sender] = _balanceOf[msg.sender].sub(_value);\r\n            _balanceOf[_to] = _balanceOf[_to].add(_value);\r\n\r\n            return true;\r\n        }\r\n        return false;\r\n    }\r\n\r\n    function transferFrom(address _from, address _to, uint _value)\r\n        public\r\n        returns (bool) {\r\n        return transferFrom(_from, _to, _value, \"\");\r\n    }\r\n\r\n    function transferFrom(address _from, address _to, uint _value, bytes _data)\r\n        public\r\n        returns (bool) {\r\n        if (_allowances[_from][msg.sender] > 0 &&\r\n            _value > 0 &&\r\n            _allowances[_from][msg.sender] >= _value &&\r\n            _balanceOf[_from] >= _value) {\r\n\r\n              _allowances[_from][msg.sender] -= _value;\r\n\r\n              if (_to.isContract()) {\r\n                ERC223ReceivingContract _contract = ERC223ReceivingContract(_to);\r\n                _contract.tokenFallback(msg.sender, _value, _data);\r\n              }\r\n\r\n            _balanceOf[_from] = _balanceOf[_from].sub(_value);\r\n            _balanceOf[_to] = _balanceOf[_to].add(_value);\r\n\r\n            Transfer(_from, _to, _value);\r\n\r\n            return true;\r\n        }\r\n        return false;\r\n    }\r\n\r\n    function approve(address _spender, uint _value)\r\n        public\r\n        returns (bool) {\r\n        if (_balanceOf[msg.sender] >= _value) {\r\n          _allowances[msg.sender][_spender] = _value;\r\n          Approval(msg.sender, _spender, _value);\r\n          return true;\r\n        }\r\n        return false;\r\n    }\r\n\r\n    function allowance(address _owner, address _spender)\r\n        public\r\n        view\r\n        returns (uint) {\r\n        if (_allowances[_owner][_spender] < _balanceOf[_owner]) {\r\n          return _allowances[_owner][_spender];\r\n        }\r\n        return _balanceOf[_owner];\r\n    }\r\n}\r\n",
  "sourcePath": "/Users/dmytrostepanov/learning-solidity/tutorial-22/contracts/MyToken.sol",
  "compiler": {
    "name": "solc",
    "version": "0.4.18+commit.9cf6e910.Emscripten.clang"
  },
  "schemaVersion": "1.0.1",
  "updatedAt": "2018-03-06T14:50:55.554Z"
}